{
  "_format": "hh-sol-artifact-1",
  "contractName": "Moodle",
  "sourceName": "contracts/Moodle.sol",
  "abi": [
    {
      "anonymous": false,
      "inputs": [
        {
          "indexed": false,
          "internalType": "address",
          "name": "recipient",
          "type": "address"
        },
        {
          "indexed": false,
          "internalType": "uint256",
          "name": "badgeId",
          "type": "uint256"
        }
      ],
      "name": "AddBadge",
      "type": "event"
    },
    {
      "anonymous": false,
      "inputs": [
        {
          "indexed": false,
          "internalType": "address",
          "name": "recipient",
          "type": "address"
        },
        {
          "indexed": false,
          "internalType": "uint256",
          "name": "competencyId",
          "type": "uint256"
        }
      ],
      "name": "AddCompetency",
      "type": "event"
    },
    {
      "anonymous": false,
      "inputs": [
        {
          "indexed": false,
          "internalType": "address",
          "name": "recipient",
          "type": "address"
        },
        {
          "indexed": false,
          "internalType": "uint256",
          "name": "courseId",
          "type": "uint256"
        }
      ],
      "name": "AddCourse",
      "type": "event"
    },
    {
      "anonymous": false,
      "inputs": [
        {
          "indexed": false,
          "internalType": "uint256",
          "name": "badgeId",
          "type": "uint256"
        },
        {
          "indexed": false,
          "internalType": "bool",
          "name": "isDeleted",
          "type": "bool"
        }
      ],
      "name": "DeleteBadge",
      "type": "event"
    },
    {
      "anonymous": false,
      "inputs": [
        {
          "indexed": false,
          "internalType": "uint256",
          "name": "competencyId",
          "type": "uint256"
        },
        {
          "indexed": false,
          "internalType": "bool",
          "name": "isDeleted",
          "type": "bool"
        }
      ],
      "name": "DeleteCompetency",
      "type": "event"
    },
    {
      "anonymous": false,
      "inputs": [
        {
          "indexed": false,
          "internalType": "uint256",
          "name": "courseId",
          "type": "uint256"
        },
        {
          "indexed": false,
          "internalType": "bool",
          "name": "finished",
          "type": "bool"
        }
      ],
      "name": "SetFinished",
      "type": "event"
    },
    {
      "inputs": [],
      "name": "_getBadgeList",
      "outputs": [
        {
          "components": [
            {
              "internalType": "uint256",
              "name": "id",
              "type": "uint256"
            },
            {
              "internalType": "string",
              "name": "name",
              "type": "string"
            },
            {
              "internalType": "string",
              "name": "description",
              "type": "string"
            },
            {
              "internalType": "string",
              "name": "issuername",
              "type": "string"
            },
            {
              "internalType": "bool",
              "name": "isDeleted",
              "type": "bool"
            }
          ],
          "internalType": "struct Moodle.Badge[]",
          "name": "",
          "type": "tuple[]"
        }
      ],
      "stateMutability": "view",
      "type": "function"
    },
    {
      "inputs": [],
      "name": "_getCompetencyList",
      "outputs": [
        {
          "components": [
            {
              "internalType": "uint256",
              "name": "id",
              "type": "uint256"
            },
            {
              "internalType": "string",
              "name": "name",
              "type": "string"
            },
            {
              "internalType": "string",
              "name": "gradename",
              "type": "string"
            },
            {
              "internalType": "string",
              "name": "createdAt",
              "type": "string"
            },
            {
              "internalType": "bool",
              "name": "isDeleted",
              "type": "bool"
            }
          ],
          "internalType": "struct Moodle.Competency[]",
          "name": "",
          "type": "tuple[]"
        }
      ],
      "stateMutability": "view",
      "type": "function"
    },
    {
      "inputs": [
        {
          "internalType": "string",
          "name": "name",
          "type": "string"
        },
        {
          "internalType": "string",
          "name": "issuername",
          "type": "string"
        },
        {
          "internalType": "string",
          "name": "description",
          "type": "string"
        },
        {
          "internalType": "bool",
          "name": "isDeleted",
          "type": "bool"
        }
      ],
      "name": "addBadge",
      "outputs": [],
      "stateMutability": "nonpayable",
      "type": "function"
    },
    {
      "inputs": [
        {
          "internalType": "string",
          "name": "name",
          "type": "string"
        },
        {
          "internalType": "string",
          "name": "gradename",
          "type": "string"
        },
        {
          "internalType": "string",
          "name": "createdAt",
          "type": "string"
        },
        {
          "internalType": "bool",
          "name": "isDeleted",
          "type": "bool"
        }
      ],
      "name": "addCompetency",
      "outputs": [],
      "stateMutability": "nonpayable",
      "type": "function"
    },
    {
      "inputs": [
        {
          "internalType": "string",
          "name": "name",
          "type": "string"
        },
        {
          "internalType": "uint16",
          "name": "year",
          "type": "uint16"
        },
        {
          "internalType": "string",
          "name": "description",
          "type": "string"
        },
        {
          "internalType": "bool",
          "name": "finished",
          "type": "bool"
        }
      ],
      "name": "addCourse",
      "outputs": [],
      "stateMutability": "nonpayable",
      "type": "function"
    },
    {
      "inputs": [
        {
          "internalType": "uint256",
          "name": "badgeId",
          "type": "uint256"
        },
        {
          "internalType": "bool",
          "name": "isDeleted",
          "type": "bool"
        }
      ],
      "name": "deleteBadge",
      "outputs": [],
      "stateMutability": "nonpayable",
      "type": "function"
    },
    {
      "inputs": [
        {
          "internalType": "uint256",
          "name": "competencyId",
          "type": "uint256"
        },
        {
          "internalType": "bool",
          "name": "isDeleted",
          "type": "bool"
        }
      ],
      "name": "deleteCompetency",
      "outputs": [],
      "stateMutability": "nonpayable",
      "type": "function"
    },
    {
      "inputs": [],
      "name": "getFinishedCourses",
      "outputs": [
        {
          "components": [
            {
              "internalType": "uint256",
              "name": "id",
              "type": "uint256"
            },
            {
              "internalType": "string",
              "name": "name",
              "type": "string"
            },
            {
              "internalType": "uint256",
              "name": "year",
              "type": "uint256"
            },
            {
              "internalType": "string",
              "name": "description",
              "type": "string"
            },
            {
              "internalType": "bool",
              "name": "finished",
              "type": "bool"
            }
          ],
          "internalType": "struct Moodle.Course[]",
          "name": "",
          "type": "tuple[]"
        }
      ],
      "stateMutability": "view",
      "type": "function"
    },
    {
      "inputs": [],
      "name": "getUnfinishedCourses",
      "outputs": [
        {
          "components": [
            {
              "internalType": "uint256",
              "name": "id",
              "type": "uint256"
            },
            {
              "internalType": "string",
              "name": "name",
              "type": "string"
            },
            {
              "internalType": "uint256",
              "name": "year",
              "type": "uint256"
            },
            {
              "internalType": "string",
              "name": "description",
              "type": "string"
            },
            {
              "internalType": "bool",
              "name": "finished",
              "type": "bool"
            }
          ],
          "internalType": "struct Moodle.Course[]",
          "name": "",
          "type": "tuple[]"
        }
      ],
      "stateMutability": "view",
      "type": "function"
    },
    {
      "inputs": [
        {
          "internalType": "uint256",
          "name": "courseId",
          "type": "uint256"
        },
        {
          "internalType": "bool",
          "name": "finished",
          "type": "bool"
        }
      ],
      "name": "setFinished",
      "outputs": [],
      "stateMutability": "nonpayable",
      "type": "function"
    }
  ],
  "bytecode": "0x608060405234801561001057600080fd5b50612144806100206000396000f3fe608060405234801561001057600080fd5b506004361061009e5760003560e01c8063a4761acd11610066578063a4761acd14610131578063b7401c371461014f578063c8834c7e1461016d578063e93bb86214610189578063f93c59ff146101a75761009e565b80636aa835a8146100a3578063760cca0e146100bf5780637ea068cf146100dd578063826377cf146100f95780638bc6069414610115575b600080fd5b6100bd60048036038101906100b891906114f1565b6101c3565b005b6100c76102a4565b6040516100d4919061171e565b60405180910390f35b6100f760048036038101906100f29190611875565b6102b5565b005b610113600480360381019061010e91906114f1565b610413565b005b61012f600480360381019061012a91906114f1565b6104f4565b005b6101396105d5565b604051610146919061171e565b60405180910390f35b6101576105e6565b6040516101649190611a76565b60405180910390f35b61018760048036038101906101829190611ad2565b6109be565b005b610191610b13565b60405161019e9190611cb7565b60405180910390f35b6101c160048036038101906101bc9190611875565b610eeb565b005b3373ffffffffffffffffffffffffffffffffffffffff166003600084815260200190815260200160002060009054906101000a900473ffffffffffffffffffffffffffffffffffffffff1673ffffffffffffffffffffffffffffffffffffffff16036102a057806000838154811061023e5761023d611cd9565b5b906000526020600020906005020160040160006101000a81548160ff0219169083151502179055507fa4f349f92993cc89f62be8c4bead1bd7d76d2e9c4d05da59739c6e0dd75f042c8282604051610297929190611d26565b60405180910390a15b5050565b60606102b06000611049565b905090565b6000600280549050905060026040518060a0016040528083815260200187815260200186815260200185815260200184151581525090806001815401808255809150506001900390600052602060002090600502016000909190919091506000820151816000015560208201518160010190816103329190611f5b565b5060408201518160020190816103489190611f5b565b50606082015181600301908161035e9190611f5b565b5060808201518160040160006101000a81548160ff0219169083151502179055505050336005600083815260200190815260200160002060006101000a81548173ffffffffffffffffffffffffffffffffffffffff021916908373ffffffffffffffffffffffffffffffffffffffff1602179055507f45cb5d2041656abcd7404d62c2cf10691f0389364bd17f0a5f7bd6e615779a2f338260405161040492919061206e565b60405180910390a15050505050565b3373ffffffffffffffffffffffffffffffffffffffff166005600084815260200190815260200160002060009054906101000a900473ffffffffffffffffffffffffffffffffffffffff1673ffffffffffffffffffffffffffffffffffffffff16036104f057806002838154811061048e5761048d611cd9565b5b906000526020600020906005020160040160006101000a81548160ff0219169083151502179055507fd16a9863ebb3c94ce6dbfe5348af4c84af1ef18271b62006d1eb975b984efeff82826040516104e7929190611d26565b60405180910390a15b5050565b3373ffffffffffffffffffffffffffffffffffffffff166004600084815260200190815260200160002060009054906101000a900473ffffffffffffffffffffffffffffffffffffffff1673ffffffffffffffffffffffffffffffffffffffff16036105d157806001838154811061056f5761056e611cd9565b5b906000526020600020906005020160040160006101000a81548160ff0219169083151502179055507f823dd997966623ae8b0ed9d33dd1d1123e44af1357ccb86fd16c50ffc34bcf4182826040516105c8929190611d26565b60405180910390a15b5050565b60606105e16001611049565b905090565b6060600060028054905067ffffffffffffffff8111156106095761060861174a565b5b60405190808252806020026020018201604052801561064257816020015b61062f6113dc565b8152602001906001900390816106275790505b5090506000805b600280549050811015610904573373ffffffffffffffffffffffffffffffffffffffff166005600083815260200190815260200160002060009054906101000a900473ffffffffffffffffffffffffffffffffffffffff1673ffffffffffffffffffffffffffffffffffffffff16036108f157600281815481106106d0576106cf611cd9565b5b90600052602060002090600502016040518060a00160405290816000820154815260200160018201805461070390611d7e565b80601f016020809104026020016040519081016040528092919081815260200182805461072f90611d7e565b801561077c5780601f106107515761010080835404028352916020019161077c565b820191906000526020600020905b81548152906001019060200180831161075f57829003601f168201915b5050505050815260200160028201805461079590611d7e565b80601f01602080910402602001604051908101604052809291908181526020018280546107c190611d7e565b801561080e5780601f106107e35761010080835404028352916020019161080e565b820191906000526020600020905b8154815290600101906020018083116107f157829003601f168201915b5050505050815260200160038201805461082790611d7e565b80601f016020809104026020016040519081016040528092919081815260200182805461085390611d7e565b80156108a05780601f10610875576101008083540402835291602001916108a0565b820191906000526020600020905b81548152906001019060200180831161088357829003601f168201915b505050505081526020016004820160009054906101000a900460ff1615151515815250508383815181106108d7576108d6611cd9565b5b602002602001018190525081806108ed906120c6565b9250505b80806108fc906120c6565b915050610649565b5060008167ffffffffffffffff8111156109215761092061174a565b5b60405190808252806020026020018201604052801561095a57816020015b6109476113dc565b81526020019060019003908161093f5790505b50905060005b828110156109b45783818151811061097b5761097a611cd9565b5b602002602001015182828151811061099657610995611cd9565b5b602002602001018190525080806109ac906120c6565b915050610960565b5080935050505090565b60008080549050905060006040518060a001604052808381526020018781526020018661ffff1681526020018581526020018415158152509080600181540180825580915050600190039060005260206000209060050201600090919091909150600082015181600001556020820151816001019081610a3e9190611f5b565b50604082015181600201556060820151816003019081610a5e9190611f5b565b5060808201518160040160006101000a81548160ff0219169083151502179055505050336003600083815260200190815260200160002060006101000a81548173ffffffffffffffffffffffffffffffffffffffff021916908373ffffffffffffffffffffffffffffffffffffffff1602179055507f92451644465e37c10bd8dd78d170634d517b0822625de1af9ed0f44f296e40cc3382604051610b0492919061206e565b60405180910390a15050505050565b6060600060018054905067ffffffffffffffff811115610b3657610b3561174a565b5b604051908082528060200260200182016040528015610b6f57816020015b610b5c61140d565b815260200190600190039081610b545790505b5090506000805b600180549050811015610e31573373ffffffffffffffffffffffffffffffffffffffff166004600083815260200190815260200160002060009054906101000a900473ffffffffffffffffffffffffffffffffffffffff1673ffffffffffffffffffffffffffffffffffffffff1603610e1e5760018181548110610bfd57610bfc611cd9565b5b90600052602060002090600502016040518060a001604052908160008201548152602001600182018054610c3090611d7e565b80601f0160208091040260200160405190810160405280929190818152602001828054610c5c90611d7e565b8015610ca95780601f10610c7e57610100808354040283529160200191610ca9565b820191906000526020600020905b815481529060010190602001808311610c8c57829003601f168201915b50505050508152602001600282018054610cc290611d7e565b80601f0160208091040260200160405190810160405280929190818152602001828054610cee90611d7e565b8015610d3b5780601f10610d1057610100808354040283529160200191610d3b565b820191906000526020600020905b815481529060010190602001808311610d1e57829003601f168201915b50505050508152602001600382018054610d5490611d7e565b80601f0160208091040260200160405190810160405280929190818152602001828054610d8090611d7e565b8015610dcd5780601f10610da257610100808354040283529160200191610dcd565b820191906000526020600020905b815481529060010190602001808311610db057829003601f168201915b505050505081526020016004820160009054906101000a900460ff161515151581525050838381518110610e0457610e03611cd9565b5b60200260200101819052508180610e1a906120c6565b9250505b8080610e29906120c6565b915050610b76565b5060008167ffffffffffffffff811115610e4e57610e4d61174a565b5b604051908082528060200260200182016040528015610e8757816020015b610e7461140d565b815260200190600190039081610e6c5790505b50905060005b82811015610ee157838181518110610ea857610ea7611cd9565b5b6020026020010151828281518110610ec357610ec2611cd9565b5b60200260200101819052508080610ed9906120c6565b915050610e8d565b5080935050505090565b6000600180549050905060016040518060a001604052808381526020018781526020018681526020018581526020018415158152509080600181540180825580915050600190039060005260206000209060050201600090919091909150600082015181600001556020820151816001019081610f689190611f5b565b506040820151816002019081610f7e9190611f5b565b506060820151816003019081610f949190611f5b565b5060808201518160040160006101000a81548160ff0219169083151502179055505050336004600083815260200190815260200160002060006101000a81548173ffffffffffffffffffffffffffffffffffffffff021916908373ffffffffffffffffffffffffffffffffffffffff1602179055507f14c24b9998f1c20a72fdde47acf712727667ec5ee69b103224cfd4df6ee80ed7338260405161103a92919061206e565b60405180910390a15050505050565b60606000808054905067ffffffffffffffff81111561106b5761106a61174a565b5b6040519080825280602002602001820160405280156110a457816020015b61109161143e565b8152602001906001900390816110895790505b5090506000805b600080549050811015611320573373ffffffffffffffffffffffffffffffffffffffff166003600083815260200190815260200160002060009054906101000a900473ffffffffffffffffffffffffffffffffffffffff1673ffffffffffffffffffffffffffffffffffffffff1614801561115b57508415156000828154811061113857611137611cd9565b5b906000526020600020906005020160040160009054906101000a900460ff161515145b1561130d576000818154811061117457611173611cd9565b5b90600052602060002090600502016040518060a0016040529081600082015481526020016001820180546111a790611d7e565b80601f01602080910402602001604051908101604052809291908181526020018280546111d390611d7e565b80156112205780601f106111f557610100808354040283529160200191611220565b820191906000526020600020905b81548152906001019060200180831161120357829003601f168201915b505050505081526020016002820154815260200160038201805461124390611d7e565b80601f016020809104026020016040519081016040528092919081815260200182805461126f90611d7e565b80156112bc5780601f10611291576101008083540402835291602001916112bc565b820191906000526020600020905b81548152906001019060200180831161129f57829003601f168201915b505050505081526020016004820160009054906101000a900460ff1615151515815250508383815181106112f3576112f2611cd9565b5b60200260200101819052508180611309906120c6565b9250505b8080611318906120c6565b9150506110ab565b5060008167ffffffffffffffff81111561133d5761133c61174a565b5b60405190808252806020026020018201604052801561137657816020015b61136361143e565b81526020019060019003908161135b5790505b50905060005b828110156113d05783818151811061139757611396611cd9565b5b60200260200101518282815181106113b2576113b1611cd9565b5b602002602001018190525080806113c8906120c6565b91505061137c565b50809350505050919050565b6040518060a00160405280600081526020016060815260200160608152602001606081526020016000151581525090565b6040518060a00160405280600081526020016060815260200160608152602001606081526020016000151581525090565b6040518060a00160405280600081526020016060815260200160008152602001606081526020016000151581525090565b6000604051905090565b600080fd5b600080fd5b6000819050919050565b61149681611483565b81146114a157600080fd5b50565b6000813590506114b38161148d565b92915050565b60008115159050919050565b6114ce816114b9565b81146114d957600080fd5b50565b6000813590506114eb816114c5565b92915050565b6000806040838503121561150857611507611479565b5b6000611516858286016114a4565b9250506020611527858286016114dc565b9150509250929050565b600081519050919050565b600082825260208201905092915050565b6000819050602082019050919050565b61156681611483565b82525050565b600081519050919050565b600082825260208201905092915050565b60005b838110156115a657808201518184015260208101905061158b565b60008484015250505050565b6000601f19601f8301169050919050565b60006115ce8261156c565b6115d88185611577565b93506115e8818560208601611588565b6115f1816115b2565b840191505092915050565b611605816114b9565b82525050565b600060a083016000830151611623600086018261155d565b506020830151848203602086015261163b82826115c3565b9150506040830151611650604086018261155d565b506060830151848203606086015261166882826115c3565b915050608083015161167d60808601826115fc565b508091505092915050565b6000611694838361160b565b905092915050565b6000602082019050919050565b60006116b482611531565b6116be818561153c565b9350836020820285016116d08561154d565b8060005b8581101561170c57848403895281516116ed8582611688565b94506116f88361169c565b925060208a019950506001810190506116d4565b50829750879550505050505092915050565b6000602082019050818103600083015261173881846116a9565b905092915050565b600080fd5b600080fd5b7f4e487b7100000000000000000000000000000000000000000000000000000000600052604160045260246000fd5b611782826115b2565b810181811067ffffffffffffffff821117156117a1576117a061174a565b5b80604052505050565b60006117b461146f565b90506117c08282611779565b919050565b600067ffffffffffffffff8211156117e0576117df61174a565b5b6117e9826115b2565b9050602081019050919050565b82818337600083830152505050565b6000611818611813846117c5565b6117aa565b90508281526020810184848401111561183457611833611745565b5b61183f8482856117f6565b509392505050565b600082601f83011261185c5761185b611740565b5b813561186c848260208601611805565b91505092915050565b6000806000806080858703121561188f5761188e611479565b5b600085013567ffffffffffffffff8111156118ad576118ac61147e565b5b6118b987828801611847565b945050602085013567ffffffffffffffff8111156118da576118d961147e565b5b6118e687828801611847565b935050604085013567ffffffffffffffff8111156119075761190661147e565b5b61191387828801611847565b9250506060611924878288016114dc565b91505092959194509250565b600081519050919050565b600082825260208201905092915050565b6000819050602082019050919050565b600060a083016000830151611974600086018261155d565b506020830151848203602086015261198c82826115c3565b915050604083015184820360408601526119a682826115c3565b915050606083015184820360608601526119c082826115c3565b91505060808301516119d560808601826115fc565b508091505092915050565b60006119ec838361195c565b905092915050565b6000602082019050919050565b6000611a0c82611930565b611a16818561193b565b935083602082028501611a288561194c565b8060005b85811015611a645784840389528151611a4585826119e0565b9450611a50836119f4565b925060208a01995050600181019050611a2c565b50829750879550505050505092915050565b60006020820190508181036000830152611a908184611a01565b905092915050565b600061ffff82169050919050565b611aaf81611a98565b8114611aba57600080fd5b50565b600081359050611acc81611aa6565b92915050565b60008060008060808587031215611aec57611aeb611479565b5b600085013567ffffffffffffffff811115611b0a57611b0961147e565b5b611b1687828801611847565b9450506020611b2787828801611abd565b935050604085013567ffffffffffffffff811115611b4857611b4761147e565b5b611b5487828801611847565b9250506060611b65878288016114dc565b91505092959194509250565b600081519050919050565b600082825260208201905092915050565b6000819050602082019050919050565b600060a083016000830151611bb5600086018261155d565b5060208301518482036020860152611bcd82826115c3565b91505060408301518482036040860152611be782826115c3565b91505060608301518482036060860152611c0182826115c3565b9150506080830151611c1660808601826115fc565b508091505092915050565b6000611c2d8383611b9d565b905092915050565b6000602082019050919050565b6000611c4d82611b71565b611c578185611b7c565b935083602082028501611c6985611b8d565b8060005b85811015611ca55784840389528151611c868582611c21565b9450611c9183611c35565b925060208a01995050600181019050611c6d565b50829750879550505050505092915050565b60006020820190508181036000830152611cd18184611c42565b905092915050565b7f4e487b7100000000000000000000000000000000000000000000000000000000600052603260045260246000fd5b611d1181611483565b82525050565b611d20816114b9565b82525050565b6000604082019050611d3b6000830185611d08565b611d486020830184611d17565b9392505050565b7f4e487b7100000000000000000000000000000000000000000000000000000000600052602260045260246000fd5b60006002820490506001821680611d9657607f821691505b602082108103611da957611da8611d4f565b5b50919050565b60008190508160005260206000209050919050565b60006020601f8301049050919050565b600082821b905092915050565b600060088302611e117fffffffffffffffffffffffffffffffffffffffffffffffffffffffffffffffff82611dd4565b611e1b8683611dd4565b95508019841693508086168417925050509392505050565b6000819050919050565b6000611e58611e53611e4e84611483565b611e33565b611483565b9050919050565b6000819050919050565b611e7283611e3d565b611e86611e7e82611e5f565b848454611de1565b825550505050565b600090565b611e9b611e8e565b611ea6818484611e69565b505050565b5b81811015611eca57611ebf600082611e93565b600181019050611eac565b5050565b601f821115611f0f57611ee081611daf565b611ee984611dc4565b81016020851015611ef8578190505b611f0c611f0485611dc4565b830182611eab565b50505b505050565b600082821c905092915050565b6000611f3260001984600802611f14565b1980831691505092915050565b6000611f4b8383611f21565b9150826002028217905092915050565b611f648261156c565b67ffffffffffffffff811115611f7d57611f7c61174a565b5b611f878254611d7e565b611f92828285611ece565b600060209050601f831160018114611fc55760008415611fb3578287015190505b611fbd8582611f3f565b865550612025565b601f198416611fd386611daf565b60005b82811015611ffb57848901518255600182019150602085019450602081019050611fd6565b868310156120185784890151612014601f891682611f21565b8355505b6001600288020188555050505b505050505050565b600073ffffffffffffffffffffffffffffffffffffffff82169050919050565b60006120588261202d565b9050919050565b6120688161204d565b82525050565b6000604082019050612083600083018561205f565b6120906020830184611d08565b9392505050565b7f4e487b7100000000000000000000000000000000000000000000000000000000600052601160045260246000fd5b60006120d182611483565b91507fffffffffffffffffffffffffffffffffffffffffffffffffffffffffffffffff820361210357612102612097565b5b60018201905091905056fea264697066735822122035889e9c65a68d38c39cc8067eeed652be2e7f79b0462c67e69723f43d5eb29a64736f6c63430008120033",
  "linkReferences": {},
  "deployedLinkReferences": {}
}