{
  "_format": "hh-sol-artifact-1",
  "contractName": "Moodle",
  "sourceName": "contracts/Moodle.sol",
  "abi": [
    {
      "anonymous": false,
      "inputs": [
        {
          "indexed": false,
          "internalType": "address",
          "name": "recipient",
          "type": "address"
        },
        {
          "indexed": false,
          "internalType": "uint256",
          "name": "badgeId",
          "type": "uint256"
        }
      ],
      "name": "AddBadge",
      "type": "event"
    },
    {
      "anonymous": false,
      "inputs": [
        {
          "indexed": false,
          "internalType": "address",
          "name": "recipient",
          "type": "address"
        },
        {
          "indexed": false,
          "internalType": "uint256",
          "name": "competencyId",
          "type": "uint256"
        }
      ],
      "name": "AddCompetency",
      "type": "event"
    },
    {
      "anonymous": false,
      "inputs": [
        {
          "indexed": false,
          "internalType": "address",
          "name": "recipient",
          "type": "address"
        },
        {
          "indexed": false,
          "internalType": "uint256",
          "name": "courseId",
          "type": "uint256"
        }
      ],
      "name": "AddCourse",
      "type": "event"
    },
    {
      "anonymous": false,
      "inputs": [
        {
          "indexed": false,
          "internalType": "address",
          "name": "recipient",
          "type": "address"
        },
        {
          "indexed": false,
          "internalType": "uint256",
          "name": "gradeId",
          "type": "uint256"
        }
      ],
      "name": "AddGrade",
      "type": "event"
    },
    {
      "anonymous": false,
      "inputs": [
        {
          "indexed": false,
          "internalType": "uint256",
          "name": "badgeId",
          "type": "uint256"
        },
        {
          "indexed": false,
          "internalType": "bool",
          "name": "isDeleted",
          "type": "bool"
        }
      ],
      "name": "DeleteBadge",
      "type": "event"
    },
    {
      "anonymous": false,
      "inputs": [
        {
          "indexed": false,
          "internalType": "uint256",
          "name": "competencyId",
          "type": "uint256"
        },
        {
          "indexed": false,
          "internalType": "bool",
          "name": "isDeleted",
          "type": "bool"
        }
      ],
      "name": "DeleteCompetency",
      "type": "event"
    },
    {
      "anonymous": false,
      "inputs": [
        {
          "indexed": false,
          "internalType": "uint256",
          "name": "gradeId",
          "type": "uint256"
        },
        {
          "indexed": false,
          "internalType": "bool",
          "name": "isDeleted",
          "type": "bool"
        }
      ],
      "name": "DeleteGrade",
      "type": "event"
    },
    {
      "anonymous": false,
      "inputs": [
        {
          "indexed": false,
          "internalType": "uint256",
          "name": "courseId",
          "type": "uint256"
        },
        {
          "indexed": false,
          "internalType": "bool",
          "name": "finished",
          "type": "bool"
        }
      ],
      "name": "SetFinished",
      "type": "event"
    },
    {
      "inputs": [],
      "name": "_getBadgeList",
      "outputs": [
        {
          "components": [
            {
              "internalType": "uint256",
              "name": "id",
              "type": "uint256"
            },
            {
              "internalType": "string",
              "name": "name",
              "type": "string"
            },
            {
              "internalType": "string",
              "name": "description",
              "type": "string"
            },
            {
              "internalType": "string",
              "name": "issuername",
              "type": "string"
            },
            {
              "internalType": "bool",
              "name": "isDeleted",
              "type": "bool"
            }
          ],
          "internalType": "struct Moodle.Badge[]",
          "name": "",
          "type": "tuple[]"
        }
      ],
      "stateMutability": "view",
      "type": "function"
    },
    {
      "inputs": [],
      "name": "_getCompetencyList",
      "outputs": [
        {
          "components": [
            {
              "internalType": "uint256",
              "name": "id",
              "type": "uint256"
            },
            {
              "internalType": "string",
              "name": "name",
              "type": "string"
            },
            {
              "internalType": "string",
              "name": "gradename",
              "type": "string"
            },
            {
              "internalType": "string",
              "name": "createdAt",
              "type": "string"
            },
            {
              "internalType": "bool",
              "name": "isDeleted",
              "type": "bool"
            }
          ],
          "internalType": "struct Moodle.Competency[]",
          "name": "",
          "type": "tuple[]"
        }
      ],
      "stateMutability": "view",
      "type": "function"
    },
    {
      "inputs": [],
      "name": "_getGradeList",
      "outputs": [
        {
          "components": [
            {
              "internalType": "uint256",
              "name": "id",
              "type": "uint256"
            },
            {
              "internalType": "string",
              "name": "grade",
              "type": "string"
            },
            {
              "internalType": "string",
              "name": "courseFullName",
              "type": "string"
            },
            {
              "internalType": "string",
              "name": "courseShortName",
              "type": "string"
            },
            {
              "internalType": "string",
              "name": "createdAt",
              "type": "string"
            },
            {
              "internalType": "bool",
              "name": "isDeleted",
              "type": "bool"
            }
          ],
          "internalType": "struct Moodle.Grade[]",
          "name": "",
          "type": "tuple[]"
        }
      ],
      "stateMutability": "view",
      "type": "function"
    },
    {
      "inputs": [
        {
          "internalType": "string",
          "name": "name",
          "type": "string"
        },
        {
          "internalType": "string",
          "name": "issuername",
          "type": "string"
        },
        {
          "internalType": "string",
          "name": "description",
          "type": "string"
        },
        {
          "internalType": "bool",
          "name": "isDeleted",
          "type": "bool"
        }
      ],
      "name": "addBadge",
      "outputs": [],
      "stateMutability": "nonpayable",
      "type": "function"
    },
    {
      "inputs": [
        {
          "internalType": "string",
          "name": "name",
          "type": "string"
        },
        {
          "internalType": "string",
          "name": "gradename",
          "type": "string"
        },
        {
          "internalType": "string",
          "name": "createdAt",
          "type": "string"
        },
        {
          "internalType": "bool",
          "name": "isDeleted",
          "type": "bool"
        }
      ],
      "name": "addCompetency",
      "outputs": [],
      "stateMutability": "nonpayable",
      "type": "function"
    },
    {
      "inputs": [
        {
          "internalType": "string",
          "name": "name",
          "type": "string"
        },
        {
          "internalType": "uint16",
          "name": "year",
          "type": "uint16"
        },
        {
          "internalType": "string",
          "name": "description",
          "type": "string"
        },
        {
          "internalType": "bool",
          "name": "finished",
          "type": "bool"
        }
      ],
      "name": "addCourse",
      "outputs": [],
      "stateMutability": "nonpayable",
      "type": "function"
    },
    {
      "inputs": [
        {
          "internalType": "string",
          "name": "grade",
          "type": "string"
        },
        {
          "internalType": "string",
          "name": "courseFullName",
          "type": "string"
        },
        {
          "internalType": "string",
          "name": "courseShortName",
          "type": "string"
        },
        {
          "internalType": "string",
          "name": "createdAt",
          "type": "string"
        },
        {
          "internalType": "bool",
          "name": "isDeleted",
          "type": "bool"
        }
      ],
      "name": "addGrade",
      "outputs": [],
      "stateMutability": "nonpayable",
      "type": "function"
    },
    {
      "inputs": [
        {
          "internalType": "uint256",
          "name": "badgeId",
          "type": "uint256"
        },
        {
          "internalType": "bool",
          "name": "isDeleted",
          "type": "bool"
        }
      ],
      "name": "deleteBadge",
      "outputs": [],
      "stateMutability": "nonpayable",
      "type": "function"
    },
    {
      "inputs": [
        {
          "internalType": "uint256",
          "name": "competencyId",
          "type": "uint256"
        },
        {
          "internalType": "bool",
          "name": "isDeleted",
          "type": "bool"
        }
      ],
      "name": "deleteCompetency",
      "outputs": [],
      "stateMutability": "nonpayable",
      "type": "function"
    },
    {
      "inputs": [
        {
          "internalType": "uint256",
          "name": "gradeId",
          "type": "uint256"
        },
        {
          "internalType": "bool",
          "name": "isDeleted",
          "type": "bool"
        }
      ],
      "name": "deleteGrade",
      "outputs": [],
      "stateMutability": "nonpayable",
      "type": "function"
    },
    {
      "inputs": [],
      "name": "getFinishedCourses",
      "outputs": [
        {
          "components": [
            {
              "internalType": "uint256",
              "name": "id",
              "type": "uint256"
            },
            {
              "internalType": "string",
              "name": "name",
              "type": "string"
            },
            {
              "internalType": "uint256",
              "name": "year",
              "type": "uint256"
            },
            {
              "internalType": "string",
              "name": "description",
              "type": "string"
            },
            {
              "internalType": "bool",
              "name": "finished",
              "type": "bool"
            }
          ],
          "internalType": "struct Moodle.Course[]",
          "name": "",
          "type": "tuple[]"
        }
      ],
      "stateMutability": "view",
      "type": "function"
    },
    {
      "inputs": [],
      "name": "getUnfinishedCourses",
      "outputs": [
        {
          "components": [
            {
              "internalType": "uint256",
              "name": "id",
              "type": "uint256"
            },
            {
              "internalType": "string",
              "name": "name",
              "type": "string"
            },
            {
              "internalType": "uint256",
              "name": "year",
              "type": "uint256"
            },
            {
              "internalType": "string",
              "name": "description",
              "type": "string"
            },
            {
              "internalType": "bool",
              "name": "finished",
              "type": "bool"
            }
          ],
          "internalType": "struct Moodle.Course[]",
          "name": "",
          "type": "tuple[]"
        }
      ],
      "stateMutability": "view",
      "type": "function"
    },
    {
      "inputs": [
        {
          "internalType": "uint256",
          "name": "courseId",
          "type": "uint256"
        },
        {
          "internalType": "bool",
          "name": "finished",
          "type": "bool"
        }
      ],
      "name": "setFinished",
      "outputs": [],
      "stateMutability": "nonpayable",
      "type": "function"
    }
  ],
  "bytecode": "0x608060405234801561001057600080fd5b50612b36806100206000396000f3fe608060405234801561001057600080fd5b50600436106100cf5760003560e01c80638bc606941161008c578063c8834c7e11610066578063c8834c7e146101d6578063ceffc61f146101f2578063e93bb86214610210578063f93c59ff1461022e576100cf565b80638bc606941461017e578063a4761acd1461019a578063b7401c37146101b8576100cf565b806321fa0a26146100d45780635a03a596146100f05780636aa835a81461010c578063760cca0e146101285780637ea068cf14610146578063826377cf14610162575b600080fd5b6100ee60048036038101906100e99190611c76565b61024a565b005b61010a60048036038101906101059190611dfc565b61032b565b005b61012660048036038101906101219190611c76565b6104a6565b005b610130610587565b60405161013d91906120c3565b60405180910390f35b610160600480360381019061015b91906120e5565b610598565b005b61017c60048036038101906101779190611c76565b6106f6565b005b61019860048036038101906101939190611c76565b6107d7565b005b6101a26108b8565b6040516101af91906120c3565b60405180910390f35b6101c06108c9565b6040516101cd91906122e6565b60405180910390f35b6101f060048036038101906101eb9190612342565b610ca1565b005b6101fa610df6565b6040516102079190612541565b60405180910390f35b610218611260565b60405161022591906126a9565b60405180910390f35b610248600480360381019061024391906120e5565b611638565b005b3373ffffffffffffffffffffffffffffffffffffffff166007600084815260200190815260200160002060009054906101000a900473ffffffffffffffffffffffffffffffffffffffff1673ffffffffffffffffffffffffffffffffffffffff16036103275780600383815481106102c5576102c46126cb565b5b906000526020600020906006020160050160006101000a81548160ff0219169083151502179055507f9e1de03b709c9bdf5ef5196eba602ef84f2ce3adcc6324242a50d756e5d6d581828260405161031e929190612718565b60405180910390a15b5050565b6000600380549050905060036040518060c0016040528083815260200188815260200187815260200186815260200185815260200184151581525090806001815401808255809150506001900390600052602060002090600602016000909190919091506000820151816000015560208201518160010190816103ae919061294d565b5060408201518160020190816103c4919061294d565b5060608201518160030190816103da919061294d565b5060808201518160040190816103f0919061294d565b5060a08201518160050160006101000a81548160ff0219169083151502179055505050336007600083815260200190815260200160002060006101000a81548173ffffffffffffffffffffffffffffffffffffffff021916908373ffffffffffffffffffffffffffffffffffffffff1602179055507fe262f78332df3432ab1116e6e82ce6442c4f98a8968d2cb731caffdf226a27d23382604051610496929190612a60565b60405180910390a1505050505050565b3373ffffffffffffffffffffffffffffffffffffffff166004600084815260200190815260200160002060009054906101000a900473ffffffffffffffffffffffffffffffffffffffff1673ffffffffffffffffffffffffffffffffffffffff1603610583578060008381548110610521576105206126cb565b5b906000526020600020906005020160040160006101000a81548160ff0219169083151502179055507fa4f349f92993cc89f62be8c4bead1bd7d76d2e9c4d05da59739c6e0dd75f042c828260405161057a929190612718565b60405180910390a15b5050565b60606105936000611796565b905090565b6000600280549050905060026040518060a001604052808381526020018781526020018681526020018581526020018415158152509080600181540180825580915050600190039060005260206000209060050201600090919091909150600082015181600001556020820151816001019081610615919061294d565b50604082015181600201908161062b919061294d565b506060820151816003019081610641919061294d565b5060808201518160040160006101000a81548160ff0219169083151502179055505050336006600083815260200190815260200160002060006101000a81548173ffffffffffffffffffffffffffffffffffffffff021916908373ffffffffffffffffffffffffffffffffffffffff1602179055507f45cb5d2041656abcd7404d62c2cf10691f0389364bd17f0a5f7bd6e615779a2f33826040516106e7929190612a60565b60405180910390a15050505050565b3373ffffffffffffffffffffffffffffffffffffffff166006600084815260200190815260200160002060009054906101000a900473ffffffffffffffffffffffffffffffffffffffff1673ffffffffffffffffffffffffffffffffffffffff16036107d3578060028381548110610771576107706126cb565b5b906000526020600020906005020160040160006101000a81548160ff0219169083151502179055507fd16a9863ebb3c94ce6dbfe5348af4c84af1ef18271b62006d1eb975b984efeff82826040516107ca929190612718565b60405180910390a15b5050565b3373ffffffffffffffffffffffffffffffffffffffff166005600084815260200190815260200160002060009054906101000a900473ffffffffffffffffffffffffffffffffffffffff1673ffffffffffffffffffffffffffffffffffffffff16036108b4578060018381548110610852576108516126cb565b5b906000526020600020906005020160040160006101000a81548160ff0219169083151502179055507f823dd997966623ae8b0ed9d33dd1d1123e44af1357ccb86fd16c50ffc34bcf4182826040516108ab929190612718565b60405180910390a15b5050565b60606108c46001611796565b905090565b6060600060028054905067ffffffffffffffff8111156108ec576108eb611cd1565b5b60405190808252806020026020018201604052801561092557816020015b610912611b29565b81526020019060019003908161090a5790505b5090506000805b600280549050811015610be7573373ffffffffffffffffffffffffffffffffffffffff166006600083815260200190815260200160002060009054906101000a900473ffffffffffffffffffffffffffffffffffffffff1673ffffffffffffffffffffffffffffffffffffffff1603610bd457600281815481106109b3576109b26126cb565b5b90600052602060002090600502016040518060a0016040529081600082015481526020016001820180546109e690612770565b80601f0160208091040260200160405190810160405280929190818152602001828054610a1290612770565b8015610a5f5780601f10610a3457610100808354040283529160200191610a5f565b820191906000526020600020905b815481529060010190602001808311610a4257829003601f168201915b50505050508152602001600282018054610a7890612770565b80601f0160208091040260200160405190810160405280929190818152602001828054610aa490612770565b8015610af15780601f10610ac657610100808354040283529160200191610af1565b820191906000526020600020905b815481529060010190602001808311610ad457829003601f168201915b50505050508152602001600382018054610b0a90612770565b80601f0160208091040260200160405190810160405280929190818152602001828054610b3690612770565b8015610b835780601f10610b5857610100808354040283529160200191610b83565b820191906000526020600020905b815481529060010190602001808311610b6657829003601f168201915b505050505081526020016004820160009054906101000a900460ff161515151581525050838381518110610bba57610bb96126cb565b5b60200260200101819052508180610bd090612ab8565b9250505b8080610bdf90612ab8565b91505061092c565b5060008167ffffffffffffffff811115610c0457610c03611cd1565b5b604051908082528060200260200182016040528015610c3d57816020015b610c2a611b29565b815260200190600190039081610c225790505b50905060005b82811015610c9757838181518110610c5e57610c5d6126cb565b5b6020026020010151828281518110610c7957610c786126cb565b5b60200260200101819052508080610c8f90612ab8565b915050610c43565b5080935050505090565b60008080549050905060006040518060a001604052808381526020018781526020018661ffff1681526020018581526020018415158152509080600181540180825580915050600190039060005260206000209060050201600090919091909150600082015181600001556020820151816001019081610d21919061294d565b50604082015181600201556060820151816003019081610d41919061294d565b5060808201518160040160006101000a81548160ff0219169083151502179055505050336004600083815260200190815260200160002060006101000a81548173ffffffffffffffffffffffffffffffffffffffff021916908373ffffffffffffffffffffffffffffffffffffffff1602179055507f92451644465e37c10bd8dd78d170634d517b0822625de1af9ed0f44f296e40cc3382604051610de7929190612a60565b60405180910390a15050505050565b6060600060038054905067ffffffffffffffff811115610e1957610e18611cd1565b5b604051908082528060200260200182016040528015610e5257816020015b610e3f611b5a565b815260200190600190039081610e375790505b5090506000805b6003805490508110156111a6573373ffffffffffffffffffffffffffffffffffffffff166007600083815260200190815260200160002060009054906101000a900473ffffffffffffffffffffffffffffffffffffffff1673ffffffffffffffffffffffffffffffffffffffff16036111935760038181548110610ee057610edf6126cb565b5b90600052602060002090600602016040518060c001604052908160008201548152602001600182018054610f1390612770565b80601f0160208091040260200160405190810160405280929190818152602001828054610f3f90612770565b8015610f8c5780601f10610f6157610100808354040283529160200191610f8c565b820191906000526020600020905b815481529060010190602001808311610f6f57829003601f168201915b50505050508152602001600282018054610fa590612770565b80601f0160208091040260200160405190810160405280929190818152602001828054610fd190612770565b801561101e5780601f10610ff35761010080835404028352916020019161101e565b820191906000526020600020905b81548152906001019060200180831161100157829003601f168201915b5050505050815260200160038201805461103790612770565b80601f016020809104026020016040519081016040528092919081815260200182805461106390612770565b80156110b05780601f10611085576101008083540402835291602001916110b0565b820191906000526020600020905b81548152906001019060200180831161109357829003601f168201915b505050505081526020016004820180546110c990612770565b80601f01602080910402602001604051908101604052809291908181526020018280546110f590612770565b80156111425780601f1061111757610100808354040283529160200191611142565b820191906000526020600020905b81548152906001019060200180831161112557829003601f168201915b505050505081526020016005820160009054906101000a900460ff161515151581525050838381518110611179576111786126cb565b5b6020026020010181905250818061118f90612ab8565b9250505b808061119e90612ab8565b915050610e59565b5060008167ffffffffffffffff8111156111c3576111c2611cd1565b5b6040519080825280602002602001820160405280156111fc57816020015b6111e9611b5a565b8152602001906001900390816111e15790505b50905060005b828110156112565783818151811061121d5761121c6126cb565b5b6020026020010151828281518110611238576112376126cb565b5b6020026020010181905250808061124e90612ab8565b915050611202565b5080935050505090565b6060600060018054905067ffffffffffffffff81111561128357611282611cd1565b5b6040519080825280602002602001820160405280156112bc57816020015b6112a9611b92565b8152602001906001900390816112a15790505b5090506000805b60018054905081101561157e573373ffffffffffffffffffffffffffffffffffffffff166005600083815260200190815260200160002060009054906101000a900473ffffffffffffffffffffffffffffffffffffffff1673ffffffffffffffffffffffffffffffffffffffff160361156b576001818154811061134a576113496126cb565b5b90600052602060002090600502016040518060a00160405290816000820154815260200160018201805461137d90612770565b80601f01602080910402602001604051908101604052809291908181526020018280546113a990612770565b80156113f65780601f106113cb576101008083540402835291602001916113f6565b820191906000526020600020905b8154815290600101906020018083116113d957829003601f168201915b5050505050815260200160028201805461140f90612770565b80601f016020809104026020016040519081016040528092919081815260200182805461143b90612770565b80156114885780601f1061145d57610100808354040283529160200191611488565b820191906000526020600020905b81548152906001019060200180831161146b57829003601f168201915b505050505081526020016003820180546114a190612770565b80601f01602080910402602001604051908101604052809291908181526020018280546114cd90612770565b801561151a5780601f106114ef5761010080835404028352916020019161151a565b820191906000526020600020905b8154815290600101906020018083116114fd57829003601f168201915b505050505081526020016004820160009054906101000a900460ff161515151581525050838381518110611551576115506126cb565b5b6020026020010181905250818061156790612ab8565b9250505b808061157690612ab8565b9150506112c3565b5060008167ffffffffffffffff81111561159b5761159a611cd1565b5b6040519080825280602002602001820160405280156115d457816020015b6115c1611b92565b8152602001906001900390816115b95790505b50905060005b8281101561162e578381815181106115f5576115f46126cb565b5b60200260200101518282815181106116105761160f6126cb565b5b6020026020010181905250808061162690612ab8565b9150506115da565b5080935050505090565b6000600180549050905060016040518060a0016040528083815260200187815260200186815260200185815260200184151581525090806001815401808255809150506001900390600052602060002090600502016000909190919091506000820151816000015560208201518160010190816116b5919061294d565b5060408201518160020190816116cb919061294d565b5060608201518160030190816116e1919061294d565b5060808201518160040160006101000a81548160ff0219169083151502179055505050336005600083815260200190815260200160002060006101000a81548173ffffffffffffffffffffffffffffffffffffffff021916908373ffffffffffffffffffffffffffffffffffffffff1602179055507f14c24b9998f1c20a72fdde47acf712727667ec5ee69b103224cfd4df6ee80ed73382604051611787929190612a60565b60405180910390a15050505050565b60606000808054905067ffffffffffffffff8111156117b8576117b7611cd1565b5b6040519080825280602002602001820160405280156117f157816020015b6117de611bc3565b8152602001906001900390816117d65790505b5090506000805b600080549050811015611a6d573373ffffffffffffffffffffffffffffffffffffffff166004600083815260200190815260200160002060009054906101000a900473ffffffffffffffffffffffffffffffffffffffff1673ffffffffffffffffffffffffffffffffffffffff161480156118a8575084151560008281548110611885576118846126cb565b5b906000526020600020906005020160040160009054906101000a900460ff161515145b15611a5a57600081815481106118c1576118c06126cb565b5b90600052602060002090600502016040518060a0016040529081600082015481526020016001820180546118f490612770565b80601f016020809104026020016040519081016040528092919081815260200182805461192090612770565b801561196d5780601f106119425761010080835404028352916020019161196d565b820191906000526020600020905b81548152906001019060200180831161195057829003601f168201915b505050505081526020016002820154815260200160038201805461199090612770565b80601f01602080910402602001604051908101604052809291908181526020018280546119bc90612770565b8015611a095780601f106119de57610100808354040283529160200191611a09565b820191906000526020600020905b8154815290600101906020018083116119ec57829003601f168201915b505050505081526020016004820160009054906101000a900460ff161515151581525050838381518110611a4057611a3f6126cb565b5b60200260200101819052508180611a5690612ab8565b9250505b8080611a6590612ab8565b9150506117f8565b5060008167ffffffffffffffff811115611a8a57611a89611cd1565b5b604051908082528060200260200182016040528015611ac357816020015b611ab0611bc3565b815260200190600190039081611aa85790505b50905060005b82811015611b1d57838181518110611ae457611ae36126cb565b5b6020026020010151828281518110611aff57611afe6126cb565b5b60200260200101819052508080611b1590612ab8565b915050611ac9565b50809350505050919050565b6040518060a00160405280600081526020016060815260200160608152602001606081526020016000151581525090565b6040518060c0016040528060008152602001606081526020016060815260200160608152602001606081526020016000151581525090565b6040518060a00160405280600081526020016060815260200160608152602001606081526020016000151581525090565b6040518060a00160405280600081526020016060815260200160008152602001606081526020016000151581525090565b6000604051905090565b600080fd5b600080fd5b6000819050919050565b611c1b81611c08565b8114611c2657600080fd5b50565b600081359050611c3881611c12565b92915050565b60008115159050919050565b611c5381611c3e565b8114611c5e57600080fd5b50565b600081359050611c7081611c4a565b92915050565b60008060408385031215611c8d57611c8c611bfe565b5b6000611c9b85828601611c29565b9250506020611cac85828601611c61565b9150509250929050565b600080fd5b600080fd5b6000601f19601f8301169050919050565b7f4e487b7100000000000000000000000000000000000000000000000000000000600052604160045260246000fd5b611d0982611cc0565b810181811067ffffffffffffffff82111715611d2857611d27611cd1565b5b80604052505050565b6000611d3b611bf4565b9050611d478282611d00565b919050565b600067ffffffffffffffff821115611d6757611d66611cd1565b5b611d7082611cc0565b9050602081019050919050565b82818337600083830152505050565b6000611d9f611d9a84611d4c565b611d31565b905082815260208101848484011115611dbb57611dba611cbb565b5b611dc6848285611d7d565b509392505050565b600082601f830112611de357611de2611cb6565b5b8135611df3848260208601611d8c565b91505092915050565b600080600080600060a08688031215611e1857611e17611bfe565b5b600086013567ffffffffffffffff811115611e3657611e35611c03565b5b611e4288828901611dce565b955050602086013567ffffffffffffffff811115611e6357611e62611c03565b5b611e6f88828901611dce565b945050604086013567ffffffffffffffff811115611e9057611e8f611c03565b5b611e9c88828901611dce565b935050606086013567ffffffffffffffff811115611ebd57611ebc611c03565b5b611ec988828901611dce565b9250506080611eda88828901611c61565b9150509295509295909350565b600081519050919050565b600082825260208201905092915050565b6000819050602082019050919050565b611f1c81611c08565b82525050565b600081519050919050565b600082825260208201905092915050565b60005b83811015611f5c578082015181840152602081019050611f41565b60008484015250505050565b6000611f7382611f22565b611f7d8185611f2d565b9350611f8d818560208601611f3e565b611f9681611cc0565b840191505092915050565b611faa81611c3e565b82525050565b600060a083016000830151611fc86000860182611f13565b5060208301518482036020860152611fe08282611f68565b9150506040830151611ff56040860182611f13565b506060830151848203606086015261200d8282611f68565b91505060808301516120226080860182611fa1565b508091505092915050565b60006120398383611fb0565b905092915050565b6000602082019050919050565b600061205982611ee7565b6120638185611ef2565b93508360208202850161207585611f03565b8060005b858110156120b15784840389528151612092858261202d565b945061209d83612041565b925060208a01995050600181019050612079565b50829750879550505050505092915050565b600060208201905081810360008301526120dd818461204e565b905092915050565b600080600080608085870312156120ff576120fe611bfe565b5b600085013567ffffffffffffffff81111561211d5761211c611c03565b5b61212987828801611dce565b945050602085013567ffffffffffffffff81111561214a57612149611c03565b5b61215687828801611dce565b935050604085013567ffffffffffffffff81111561217757612176611c03565b5b61218387828801611dce565b925050606061219487828801611c61565b91505092959194509250565b600081519050919050565b600082825260208201905092915050565b6000819050602082019050919050565b600060a0830160008301516121e46000860182611f13565b50602083015184820360208601526121fc8282611f68565b915050604083015184820360408601526122168282611f68565b915050606083015184820360608601526122308282611f68565b91505060808301516122456080860182611fa1565b508091505092915050565b600061225c83836121cc565b905092915050565b6000602082019050919050565b600061227c826121a0565b61228681856121ab565b935083602082028501612298856121bc565b8060005b858110156122d457848403895281516122b58582612250565b94506122c083612264565b925060208a0199505060018101905061229c565b50829750879550505050505092915050565b600060208201905081810360008301526123008184612271565b905092915050565b600061ffff82169050919050565b61231f81612308565b811461232a57600080fd5b50565b60008135905061233c81612316565b92915050565b6000806000806080858703121561235c5761235b611bfe565b5b600085013567ffffffffffffffff81111561237a57612379611c03565b5b61238687828801611dce565b94505060206123978782880161232d565b935050604085013567ffffffffffffffff8111156123b8576123b7611c03565b5b6123c487828801611dce565b92505060606123d587828801611c61565b91505092959194509250565b600081519050919050565b600082825260208201905092915050565b6000819050602082019050919050565b600060c0830160008301516124256000860182611f13565b506020830151848203602086015261243d8282611f68565b915050604083015184820360408601526124578282611f68565b915050606083015184820360608601526124718282611f68565b9150506080830151848203608086015261248b8282611f68565b91505060a08301516124a060a0860182611fa1565b508091505092915050565b60006124b7838361240d565b905092915050565b6000602082019050919050565b60006124d7826123e1565b6124e181856123ec565b9350836020820285016124f3856123fd565b8060005b8581101561252f578484038952815161251085826124ab565b945061251b836124bf565b925060208a019950506001810190506124f7565b50829750879550505050505092915050565b6000602082019050818103600083015261255b81846124cc565b905092915050565b600081519050919050565b600082825260208201905092915050565b6000819050602082019050919050565b600060a0830160008301516125a76000860182611f13565b50602083015184820360208601526125bf8282611f68565b915050604083015184820360408601526125d98282611f68565b915050606083015184820360608601526125f38282611f68565b91505060808301516126086080860182611fa1565b508091505092915050565b600061261f838361258f565b905092915050565b6000602082019050919050565b600061263f82612563565b612649818561256e565b93508360208202850161265b8561257f565b8060005b8581101561269757848403895281516126788582612613565b945061268383612627565b925060208a0199505060018101905061265f565b50829750879550505050505092915050565b600060208201905081810360008301526126c38184612634565b905092915050565b7f4e487b7100000000000000000000000000000000000000000000000000000000600052603260045260246000fd5b61270381611c08565b82525050565b61271281611c3e565b82525050565b600060408201905061272d60008301856126fa565b61273a6020830184612709565b9392505050565b7f4e487b7100000000000000000000000000000000000000000000000000000000600052602260045260246000fd5b6000600282049050600182168061278857607f821691505b60208210810361279b5761279a612741565b5b50919050565b60008190508160005260206000209050919050565b60006020601f8301049050919050565b600082821b905092915050565b6000600883026128037fffffffffffffffffffffffffffffffffffffffffffffffffffffffffffffffff826127c6565b61280d86836127c6565b95508019841693508086168417925050509392505050565b6000819050919050565b600061284a61284561284084611c08565b612825565b611c08565b9050919050565b6000819050919050565b6128648361282f565b61287861287082612851565b8484546127d3565b825550505050565b600090565b61288d612880565b61289881848461285b565b505050565b5b818110156128bc576128b1600082612885565b60018101905061289e565b5050565b601f821115612901576128d2816127a1565b6128db846127b6565b810160208510156128ea578190505b6128fe6128f6856127b6565b83018261289d565b50505b505050565b600082821c905092915050565b600061292460001984600802612906565b1980831691505092915050565b600061293d8383612913565b9150826002028217905092915050565b61295682611f22565b67ffffffffffffffff81111561296f5761296e611cd1565b5b6129798254612770565b6129848282856128c0565b600060209050601f8311600181146129b757600084156129a5578287015190505b6129af8582612931565b865550612a17565b601f1984166129c5866127a1565b60005b828110156129ed578489015182556001820191506020850194506020810190506129c8565b86831015612a0a5784890151612a06601f891682612913565b8355505b6001600288020188555050505b505050505050565b600073ffffffffffffffffffffffffffffffffffffffff82169050919050565b6000612a4a82612a1f565b9050919050565b612a5a81612a3f565b82525050565b6000604082019050612a756000830185612a51565b612a8260208301846126fa565b9392505050565b7f4e487b7100000000000000000000000000000000000000000000000000000000600052601160045260246000fd5b6000612ac382611c08565b91507fffffffffffffffffffffffffffffffffffffffffffffffffffffffffffffffff8203612af557612af4612a89565b5b60018201905091905056fea264697066735822122053634a3d31f8f4f841ad73bad76151a7be75e2cb5f7fb305c917eded8d8c84c164736f6c63430008120033",
  "linkReferences": {},
  "deployedLinkReferences": {}
}